:100000000C9434000C9451000C9451000C94510049
:100010000C9451000C9451000C9451000C9451001C
:100020000C9451000C9451000C9451000C9451000C
:100030000C9451000C94E2000C9451000C9451006B
:100040000C9451000C9451000C9451000C945100EC
:100050000C9451000C9451000C9451000C945100DC
:100060000C9451000C94510011241FBECFEFD8E026
:10007000DEBFCDBF11E0A0E0B1E0E8E6F6E002C0EF
:1000800005900D92A030B107D9F721E0A0E0B1E0D2
:1000900001C01D92A530B207E1F70E94F1000C9457
:1000A00032030C94000081E480937C0087E8809305
:1000B0007A00089584B1826084B982E880938000D8
:1000C00089E180938100EFE6F0E0808181608083A8
:1000D0008FE79EE3909387008093860081E090E015
:1000E00090938900809388000895EAE7F0E080818A
:1000F0008064808380917A0084FFFCCFEAE7F0E09F
:10010000808180618083609178007091790080E0C7
:1001100090E00E9437022AE037ED43EA50E40E9463
:10012000C5020E940802CB010895CF92DF92EF92A0
:10013000FF92CF93DF93EC01609101017091020176
:1001400080E090E00E94370228E83EEB4FE75FE353
:100150000E94C5026B017C01BE0180E090E00E941C
:10016000370229EE30EF42E85AE30E94C5029B01B4
:10017000AC01C701B6010E942A010E940802CB010E
:10018000DF91CF91FF90EF90DF90CF900895BC0169
:1001900080E090E00E94370220E030E04AE756E439
:1001A0000E94C50220E030E040EA55E40E9496013A
:1001B00020E030E040E85FE30E9429010E9408024D
:1001C000CB0108951F920F920FB60F9211248F93B7
:1001D00081E0809300018F910F900FBE0F901F90D0
:1001E00018950E9453000E945A000E941D017894A5
:1001F000809100018823E1F3109200010E947500B4
:100200009093040180930301209103013091040134
:1002100088EB9BE0821B930B0E9495009093020158
:100220008093010180910101909102010E94C70019
:100230009093890080938800DBCF1092C50087E6F9
:100240008093C40088E18093C10086E08093C2005F
:1002500008955058BB27AA270E9441010C948B0295
:100260000E947D0238F00E94840220F039F49F3F02
:1002700019F426F40C947A020EF4E095E7FB0C9442
:100280007402E92F0E949C0258F3BA1762077307A1
:100290008407950720F079F4A6F50C94BE020EF4BD
:1002A000E0950B2EBA2FA02D0B01B90190010C0186
:1002B000CA01A0011124FF27591B99F0593F50F49E
:1002C000503E68F11A16F040A22F232F342F4427F6
:1002D000585FF3CF469537952795A795F0405395EE
:1002E000C9F77EF41F16BA0B620B730B840BBAF0BE
:1002F0009150A1F0FF0FBB1F661F771F881FC2F729
:100300000EC0BA0F621F731F841F48F4879577953C
:100310006795B795F7959E3F08F0B0CF9395880FF6
:1003200008F09927EE0F9795879508950E94AA01E6
:100330000C948B020E94840258F00E947D0240F0CF
:1003400029F45F3F29F00C94740251110C94BF0200
:100350000C947A020E949C0268F39923B1F355230E
:1003600091F3951B550BBB27AA27621773078407C8
:1003700038F09F5F5F4F220F331F441FAA1FA9F35E
:1003800035D00E2E3AF0E0E832D091505040E6954C
:10039000001CCAF72BD0FE2F29D0660F771F881FAD
:1003A000BB1F261737074807AB07B0E809F0BB0BA0
:1003B000802DBF01FF2793585F4F3AF09E3F5105B4
:1003C00078F00C9474020C94BF025F3FE4F3983E03
:1003D000D4F3869577956795B795F7959F5FC9F79D
:1003E000880F911D9695879597F90895E1E0660F1E
:1003F000771F881FBB1F621773078407BA0720F097
:10040000621B730B840BBA0BEE1F88F7E0950895FF
:100410000E94A40288F09F5798F0B92F9927B751EE
:10042000B0F0E1F0660F771F881F991F1AF0BA9598
:10043000C9F714C0B13091F00E94BE02B1E0089536
:100440000C94BE02672F782F8827B85F39F0B93F28
:10045000CCF3869577956795B395D9F73EF490954B
:100460008095709561957F4F8F4F9F4F0895E894C9
:1004700009C097FB3EF490958095709561957F4FEC
:100480008F4F9F4F9923A9F0F92F96E9BB2793959A
:10049000F695879577956795B795F111F8CFFAF4AA
:1004A000BB0F11F460FF1BC06F5F7F4F8F4F9F4FDB
:1004B00016C0882311F096E911C0772321F09EE839
:1004C000872F762F05C0662371F096E8862F70E09F
:1004D00060E02AF09A95660F771F881FDAF7880F79
:1004E0009695879597F9089597F99F6780E870E04A
:1004F00060E008959FEF80EC089500240A9416169A
:10050000170618060906089500240A941216130601
:10051000140605060895092E0394000C11F488238F
:1005200052F0BB0F40F4BF2B11F460FF04C06F5FAB
:100530007F4F8F4F9F4F089557FD9058440F551F81
:1005400059F05F3F71F04795880F97FB991F61F055
:100550009F3F79F087950895121613061406551FCC
:10056000F2CF4695F1DF08C0161617061806991F38
:10057000F1CF86957105610508940895E894BB272D
:1005800066277727CB0197F908950E94D8020C942B
:100590008B020E947D0238F00E94840220F0952395
:1005A00011F00C9474020C947A0211240C94BF0282
:1005B0000E949C0270F3959FC1F3950F50E0551F68
:1005C000629FF001729FBB27F00DB11D639FAA27A8
:1005D000F00DB11DAA1F649F6627B00DA11D661FF7
:1005E000829F2227B00DA11D621F739FB00DA11D18
:1005F000621F839FA00D611D221F749F3327A00DD2
:10060000611D231F849F600D211D822F762F6A2F6D
:1006100011249F5750409AF0F1F088234AF0EE0FD2
:10062000FF1FBB1F661F771F881F91505040A9F7FF
:100630009E3F510580F00C9474020C94BF025F3F02
:10064000E4F3983ED4F3869577956795B795F7953B
:10065000E7959F5FC1F7FE2B880F911D96958795B3
:0806600097F90895F894FFCF0B
:00000001FF
