S017000054503020436F6E74726F6C204949492E737265633D
S11300000C9434000C9446000C9446000C94460066
S11300100C9446000C9446000C9446000C94460044
S11300200C9446000C9446000C9446000C94460034
S11300300C9446000C94C1000C9446000C944600A9
S11300400C9446000C9446000C9446000C94460014
S11300500C9446000C9446000C9446000C94460004
S11300600C9446000C94460011241FBECFEFD8E038
S1130070DEBFCDBF21E0A0E0B1E001C01D92A930F8
S1130080B207E1F70E94D0000C9421010C94000007
S113009081E480937C0087E880937A000895219A14
S11300A082E88093800089E180938100EFE6F0E0AC
S11300B08081816080838FE79EE3909387008093A3
S11300C0860088EE93E090938900809388000895D9
S11300D080917A00806480937A0080917A0084FF12
S11300E0FCCF80917A00806180937A0080917800BF
S11300F09091790025E0AC01249FC001259F900DCB
S113010011240895FB019B01280F391FB9010E9496
S11301100D0160930301CF01B9010E940D016093A9
S11301200401089560910501709106015091030145
S113013040910401569F9001579F300D1124BC013A
S1130140469FC001479F900D1124820F931F9093E7
S1130150060180930501809105019091060108959F
S113016020E83EE3AC01429FC001439F900D529FA3
S1130170900D112460E074E10E940D01CB01019700
S113018008951F920F920FB60F9211248F9381E05E
S1130190809302018F910F900FBE0F901F901895BE
S11301A00E9448000E944F006CE070E08CE090E0F8
S11301B00E9482000E9401017894C8EBDBE08091E8
S11301C00201811101C0FFCF109202010E94680058
S11301D09093080180930701809107019091080191
S11301E09E01281B390BC9010E94920090930101C2
S11301F0809300010E94B00090938900809388004E
S1130200DECF1092C50087E68093C40088E1809316
S1130210C10086E08093C2000895AA1BBB1B51E174
S113022007C0AA1FBB1FA617B70710F0A61BB70B62
S1130230881F991F5A95A9F780959095BC01CD0107
S10902400895F894FFCFBD
S9030000FC
