S017000054503020436F6E74726F6C204949492E737265633D
S11300000C9434000C9446000C9446000C94460066
S11300100C9446000C9446000C9446000C94460044
S11300200C9446000C9446000C9446000C94460034
S11300300C9446000C9491000C9446000C944600D9
S11300400C9446000C9446000C9446000C94460014
S11300500C9446000C9446000C9446000C94460004
S11300600C9446000C94460011241FBECFEFD8E038
S1130070DEBFCDBF21E0A0E0B1E001C01D92A730FA
S1130080B207E1F70E94A0000C94CE000C9400008B
S113009081E480937C0087E880937A00089584B19A
S11300A0826084B982E88093800089E18093810032
S11300B0EFE6F0E08081816080838FE79EE3909398
S11300C087008093860080E49FE190938900809369
S11300D088000895EAE7F0E080818064808380915D
S11300E07A0084FFFCCFEAE7F0E0808180618083BE
S11300F080917800909179009C01220F331F220F88
S1130100331F820F931F089580910301909104017E
S11301101092040110920301809103019091040153
S113012008951F920F920FB60F9211248F9381E0BE
S1130130809302018F910F900FBE0F901F9018951E
S11301400E9448000E944F000E94C200789480914F
S113015002018823E1F3109202010E946A00909345
S1130160060180930501209105013091060188EB79
S11301709BE0821B930B0E94840090930101809367
S11301800001E5CF1092C50087E68093C40088E1A2
S11301908093C10086E08093C2000895F894FFCF55
S9030000FC
