:100000000C9434000C9446000C9446000C9446006A
:100010000C9446000C9446000C9446000C94460048
:100020000C9446000C9446000C9446000C94460038
:100030000C9446000C94CF000C9446000C9446009F
:100040000C9446000C9446000C9446000C94460018
:100050000C9446000C9446000C9446000C94460008
:100060000C9446000C94460011241FBECFEFD8E03C
:10007000DEBFCDBF21E0A0E0B1E001C01D92A930FC
:10008000B207E1F70E94DE000C94BD020C94000060
:1000900081E480937C0087E880937A00089584B19E
:1000A000826084B982E88093800089E18093810036
:1000B000EFE6F0E08081816080838FE79EE390939C
:1000C00087008093860080E49FE19093890080936D
:1000D00088000895EAE7F0E0808180648083809161
:1000E0007A0084FFFCCFEAE7F0E0808180618083C2
:1000F00080917800909179009C01220F331F220F8C
:10010000331F820F931F0895CF92DF92EF92FF92D9
:10011000CF93DF93EC012FE23AEB48E65FE3609187
:1001200000017091010180910201909103010E94F0
:100130003C026B017C01BE0180E090E00E94AE01B8
:100140002CE83EE24AEB5DE30E943C029B01AC01DD
:10015000C701B6010E941301609300017093010171
:1001600080930201909303010E947F01CB01DF91F4
:10017000CF91FF90EF90DF90CF90089520E83EE37D
:10018000AC01429FC001439F900D529F900D1124DE
:1001900060E074E10E94A902CB01019708951F92CB
:1001A0000F920FB60F9211248F9381E08093060176
:1001B0008F910F900FBE0F901F9018950E944800CE
:1001C0000E944F000E9406017894809106018823C6
:1001D000E1F3109206010E946A0090930801809357
:1001E0000701209107013091080188EB9BE0821BF9
:1001F000930B0E94840090930501809304010E9458
:10020000BE009093890080938800DFCF1092C500D4
:1002100087E68093C40088E18093C10086E08093E4
:10022000C20008955058BB27AA270E942A010C94A7
:1002300002020E94F40138F00E94FB0120F039F420
:100240009F3F19F426F40C94F1010EF4E095E7FBBE
:100250000C94EB01E92F0E94130258F3BA176207BE
:1002600073078407950720F079F4A6F50C943502FE
:100270000EF4E0950B2EBA2FA02D0B01B9019001C1
:100280000C01CA01A0011124FF27591B99F0593F05
:1002900050F4503E68F11A16F040A22F232F342F4D
:1002A0004427585FF3CF469537952795A795F0409B
:1002B0005395C9F77EF41F16BA0B620B730B840BB0
:1002C000BAF09150A1F0FF0FBB1F661F771F881F68
:1002D000C2F70EC0BA0F621F731F841F48F48795C0
:1002E00077956795B795F7959E3F08F0B0CF9395B2
:1002F000880F08F09927EE0F9795879508950E942B
:100300001B0288F09F5798F0B92F9927B751B0F08A
:10031000E1F0660F771F881F991F1AF0BA95C9F789
:1003200014C0B13091F00E943502B1E008950C94F0
:100330003502672F782F8827B85F39F0B93FCCF3A3
:10034000869577956795B395D9F73EF49095809506
:10035000709561957F4F8F4F9F4F0895E89409C026
:1003600097FB3EF490958095709561957F4F8F4FE8
:100370009F4F9923A9F0F92F96E9BB279395F695FE
:10038000879577956795B795F111F8CFFAF4BB0F7C
:1003900011F460FF1BC06F5F7F4F8F4F9F4F16C0E0
:1003A000882311F096E911C0772321F09EE8872F6A
:1003B000762F05C0662371F096E8862F70E060E026
:1003C0002AF09A95660F771F881FDAF7880F96959F
:1003D000879597F9089597F99F6780E870E060E046
:1003E00008959FEF80EC089500240A9416161706CE
:1003F00018060906089500240A9412161306140616
:1004000005060895092E0394000C11F4882352F078
:10041000BB0F40F4BF2B11F460FF04C06F5F7F4F30
:100420008F4F9F4F089557FD9058440F551F59F017
:100430005F3F71F04795880F97FB991F61F09F3FD1
:1004400079F087950895121613061406551FF2CFFA
:100450004695F1DF08C0161617061806991FF1CF4A
:1004600086957105610508940895E894BB27662771
:100470007727CB0197F908950E944F020C9402024E
:100480000E94F40138F00E94FB0120F0952311F046
:100490000C94EB010C94F10111240C9436020E948F
:1004A000130270F3959FC1F3950F50E0551F629FA3
:1004B000F001729FBB27F00DB11D639FAA27F00DBD
:1004C000B11DAA1F649F6627B00DA11D661F829FE4
:1004D0002227B00DA11D621F739FB00DA11D621FC9
:1004E000839FA00D611D221F749F3327A00D611DE6
:1004F000231F849F600D211D822F762F6A2F1124C8
:100500009F5750409AF0F1F088234AF0EE0FFF1FFA
:10051000BB1F661F771F881F91505040A9F79E3F51
:10052000510580F00C94EB010C9436025F3FE4F32C
:10053000983ED4F3869577956795B795F795E795A7
:100540009F5FC1F7FE2B880F911D9695879597F9B0
:100550000895AA1BBB1B51E107C0AA1FBB1FA6170A
:10056000B70710F0A61BB70B881F991F5A95A9F75C
:0E05700080959095BC01CD010895F894FFCFC1
:00000001FF
